{
  "contractName": "NewsFact",
  "abi": [
    {
      "constant": true,
      "inputs": [
        {
          "name": "",
          "type": "address"
        }
      ],
      "name": "journalists",
      "outputs": [
        {
          "name": "name",
          "type": "string"
        },
        {
          "name": "email",
          "type": "string"
        },
        {
          "name": "website",
          "type": "string"
        },
        {
          "name": "reputation",
          "type": "uint256"
        }
      ],
      "payable": false,
      "stateMutability": "view",
      "type": "function"
    },
    {
      "constant": true,
      "inputs": [
        {
          "name": "",
          "type": "uint256"
        }
      ],
      "name": "articles",
      "outputs": [
        {
          "name": "_hash",
          "type": "bytes32"
        },
        {
          "name": "link",
          "type": "string"
        },
        {
          "name": "title",
          "type": "string"
        },
        {
          "components": [
            {
              "name": "name",
              "type": "string"
            },
            {
              "name": "email",
              "type": "string"
            },
            {
              "name": "website",
              "type": "string"
            },
            {
              "name": "articles",
              "type": "uint256[]"
            },
            {
              "name": "votes",
              "type": "uint256[1000]"
            },
            {
              "name": "reputation",
              "type": "uint256"
            }
          ],
          "name": "author",
          "type": "tuple"
        },
        {
          "name": "quality",
          "type": "uint256"
        }
      ],
      "payable": false,
      "stateMutability": "view",
      "type": "function"
    },
    {
      "constant": false,
      "inputs": [
        {
          "name": "__hash",
          "type": "bytes32"
        },
        {
          "name": "_link",
          "type": "string"
        },
        {
          "name": "_title",
          "type": "string"
        }
      ],
      "name": "publishArticle",
      "outputs": [],
      "payable": false,
      "stateMutability": "nonpayable",
      "type": "function"
    },
    {
      "constant": false,
      "inputs": [
        {
          "name": "id",
          "type": "uint256"
        },
        {
          "name": "real",
          "type": "bool"
        }
      ],
      "name": "voteArticle",
      "outputs": [],
      "payable": false,
      "stateMutability": "nonpayable",
      "type": "function"
    },
    {
      "constant": true,
      "inputs": [],
      "name": "getNumberArticles",
      "outputs": [
        {
          "name": "",
          "type": "uint256"
        }
      ],
      "payable": false,
      "stateMutability": "view",
      "type": "function"
    },
    {
      "constant": false,
      "inputs": [],
      "name": "getAllArticles",
      "outputs": [
        {
          "name": "",
          "type": "string[]"
        },
        {
          "name": "",
          "type": "string[]"
        },
        {
          "name": "",
          "type": "uint256[]"
        },
        {
          "name": "",
          "type": "string[]"
        },
        {
          "name": "",
          "type": "bytes32[]"
        }
      ],
      "payable": false,
      "stateMutability": "nonpayable",
      "type": "function"
    },
    {
      "constant": false,
      "inputs": [
        {
          "name": "target",
          "type": "address"
        },
        {
          "name": "_reputation",
          "type": "uint256"
        },
        {
          "name": "_name",
          "type": "string"
        }
      ],
      "name": "setJournalistData",
      "outputs": [],
      "payable": false,
      "stateMutability": "nonpayable",
      "type": "function"
    },
    {
      "constant": true,
      "inputs": [
        {
          "name": "addr",
          "type": "address"
        }
      ],
      "name": "getUserArticles",
      "outputs": [
        {
          "name": "",
          "type": "uint256[]"
        }
      ],
      "payable": false,
      "stateMutability": "view",
      "type": "function"
    },
    {
      "constant": true,
      "inputs": [
        {
          "name": "id",
          "type": "uint256"
        }
      ],
      "name": "getArticle",
      "outputs": [
        {
          "name": "",
          "type": "string"
        },
        {
          "name": "",
          "type": "string"
        },
        {
          "name": "",
          "type": "uint256"
        },
        {
          "name": "",
          "type": "string"
        },
        {
          "name": "",
          "type": "bytes32"
        },
        {
          "name": "",
          "type": "uint256[]"
        }
      ],
      "payable": false,
      "stateMutability": "view",
      "type": "function"
    }
  ],
  "bytecode": "0x608060405234801561001057600080fd5b506122ff806100206000396000f300608060405260043610610099576000357c0100000000000000000000000000000000000000000000000000000000900463ffffffff1680630ff5f4141461009e57806350971d1e146100c7578063761aeb30146101075780639256bab314610130578063a037417f14610159578063b44d310b14610184578063bd85d867146101b3578063cb9b20e5146101f5578063edcfafe614610232575b600080fd5b3480156100aa57600080fd5b506100c560048036036100c09190810190611ac7565b610273565b005b3480156100d357600080fd5b506100ee60048036036100e99190810190611a9e565b610315565b6040516100fe9493929190612083565b60405180910390f35b34801561011357600080fd5b5061012e60048036036101299190810190611b2e565b61050e565b005b34801561013c57600080fd5b5061015760048036036101529190810190611bd6565b610a6f565b005b34801561016557600080fd5b5061016e610c04565b60405161017b91906120dd565b60405180910390f35b34801561019057600080fd5b50610199610c11565b6040516101aa959493929190611f06565b60405180910390f35b3480156101bf57600080fd5b506101da60048036036101d59190810190611bad565b611088565b6040516101ec96959493929190612006565b60405180910390f35b34801561020157600080fd5b5061021c60048036036102179190810190611a9e565b61139a565b6040516102299190611f7c565b60405180910390f35b34801561023e57600080fd5b5061025960048036036102549190810190611bad565b611433565b60405161026a959493929190611f9e565b60405180910390f35b816000808573ffffffffffffffffffffffffffffffffffffffff1673ffffffffffffffffffffffffffffffffffffffff1681526020019081526020016000206103ec0181905550806000808573ffffffffffffffffffffffffffffffffffffffff1673ffffffffffffffffffffffffffffffffffffffff168152602001908152602001600020600001908051906020019061030f929190611845565b50505050565b6000602052806000526040600020600091509050806000018054600181600116156101000203166002900480601f0160208091040260200160405190810160405280929190818152602001828054600181600116156101000203166002900480156103c15780601f10610396576101008083540402835291602001916103c1565b820191906000526020600020905b8154815290600101906020018083116103a457829003601f168201915b505050505090806001018054600181600116156101000203166002900480601f01602080910402602001604051908101604052809291908181526020018280546001816001161561010002031660029004801561045f5780601f106104345761010080835404028352916020019161045f565b820191906000526020600020905b81548152906001019060200180831161044257829003601f168201915b505050505090806002018054600181600116156101000203166002900480601f0160208091040260200160405190810160405280929190818152602001828054600181600116156101000203166002900480156104fd5780601f106104d2576101008083540402835291602001916104fd565b820191906000526020600020905b8154815290600101906020018083116104e057829003601f168201915b505050505090806103ec0154905084565b6000806000803373ffffffffffffffffffffffffffffffffffffffff1673ffffffffffffffffffffffffffffffffffffffff1681526020019081526020016000206103ec01549050600160c06040519081016040528087600019168152602001848054806020026020016040519081016040528092919081815260200182805480156105b957602002820191906000526020600020905b8154815260200190600101908083116105a5575b505050505081526020018681526020018581526020016000803373ffffffffffffffffffffffffffffffffffffffff1673ffffffffffffffffffffffffffffffffffffffff16815260200190815260200160002060c06040519081016040529081600082018054600181600116156101000203166002900480601f0160208091040260200160405190810160405280929190818152602001828054600181600116156101000203166002900480156106b25780601f10610687576101008083540402835291602001916106b2565b820191906000526020600020905b81548152906001019060200180831161069557829003601f168201915b50505050508152602001600182018054600181600116156101000203166002900480601f0160208091040260200160405190810160405280929190818152602001828054600181600116156101000203166002900480156107545780601f1061072957610100808354040283529160200191610754565b820191906000526020600020905b81548152906001019060200180831161073757829003601f168201915b50505050508152602001600282018054600181600116156101000203166002900480601f0160208091040260200160405190810160405280929190818152602001828054600181600116156101000203166002900480156107f65780601f106107cb576101008083540402835291602001916107f6565b820191906000526020600020905b8154815290600101906020018083116107d957829003601f168201915b505050505081526020016003820180548060200260200160405190810160405280929190818152602001828054801561084e57602002820191906000526020600020905b81548152602001906001019080831161083a575b50505050508152602001600482016103e88060200260405190810160405280929190826103e88015610895576020028201915b815481526020019060010190808311610881575b505050505081526020016103ec8201548152505081526020018381525090806001815401808255809150509060018203906000526020600020906103f202016000909192909190915060008201518160000190600019169055602082015181600101908051906020019061090a9291906118c5565b506040820151816002019080519060200190610927929190611912565b506060820151816003019080519060200190610944929190611912565b50608082015181600401600082015181600001908051906020019061096a929190611912565b506020820151816001019080519060200190610987929190611912565b5060408201518160020190805190602001906109a4929190611912565b5060608201518160030190805190602001906109c19291906118c5565b50608082015181600401906103e86109da929190611992565b5060a0820151816103ec0155505060a0820151816103f101555050506000803373ffffffffffffffffffffffffffffffffffffffff1673ffffffffffffffffffffffffffffffffffffffff168152602001908152602001600020600301600180805490500390806001815401808255809150509060018203906000526020600020016000909192909190915055505050505050565b6000809050600115158215151415610acb576000803373ffffffffffffffffffffffffffffffffffffffff1673ffffffffffffffffffffffffffffffffffffffff1681526020019081526020016000206103ec01549050610b14565b6000803373ffffffffffffffffffffffffffffffffffffffff1673ffffffffffffffffffffffffffffffffffffffff1681526020019081526020016000206103ec015460000390505b80600184815481101515610b2457fe5b906000526020600020906103f202016103f1015401600184815481101515610b4857fe5b906000526020600020906103f202016103f10181905550600183815481101515610b6e57fe5b906000526020600020906103f20201600101819080600181540180825580915050906001820390600052602060002001600090919290919091505550806000803373ffffffffffffffffffffffffffffffffffffffff1673ffffffffffffffffffffffffffffffffffffffff168152602001908152602001600020600401846103e881101515610bfa57fe5b0181905550505050565b6000600180549050905090565b6060806060806060806060806060806000600180549050604051908082528060200260200182016040528015610c5b57816020015b6060815260200190600190039081610c465790505b509550600180549050604051908082528060200260200182016040528015610c9757816020015b6060815260200190600190039081610c825790505b509450600180549050604051908082528060200260200182016040528015610cce5781602001602082028038833980820191505090505b509350600180549050604051908082528060200260200182016040528015610d0a57816020015b6060815260200190600190039081610cf55790505b509250600180549050604051908082528060200260200182016040528015610d415781602001602082028038833980820191505090505b509150600090505b60018054905081101561106c57600181815481101515610d6557fe5b906000526020600020906103f202016003018054600181600116156101000203166002900480601f016020809104026020016040519081016040528092919081815260200182805460018160011615610100020316600290048015610e0b5780601f10610de057610100808354040283529160200191610e0b565b820191906000526020600020905b815481529060010190602001808311610dee57829003601f168201915b50505050508682815181101515610e1e57fe5b90602001906020020181905250600181815481101515610e3a57fe5b906000526020600020906103f202016004016000018054600181600116156101000203166002900480601f016020809104026020016040519081016040528092919081815260200182805460018160011615610100020316600290048015610ee35780601f10610eb857610100808354040283529160200191610ee3565b820191906000526020600020905b815481529060010190602001808311610ec657829003601f168201915b50505050508582815181101515610ef657fe5b90602001906020020181905250600181815481101515610f1257fe5b906000526020600020906103f202016103f101548482815181101515610f3457fe5b9060200190602002018181525050600181815481101515610f5157fe5b906000526020600020906103f202016002018054600181600116156101000203166002900480601f016020809104026020016040519081016040528092919081815260200182805460018160011615610100020316600290048015610ff75780601f10610fcc57610100808354040283529160200191610ff7565b820191906000526020600020905b815481529060010190602001808311610fda57829003601f168201915b5050505050838281518110151561100a57fe5b9060200190602002018190525060018181548110151561102657fe5b906000526020600020906103f2020160000154828281518110151561104757fe5b9060200190602002019060001916908160001916815250508080600101915050610d49565b85858585859a509a509a509a509a505050505050509091929394565b60608060006060600060606001878154811015156110a257fe5b906000526020600020906103f202016003016001888154811015156110c357fe5b906000526020600020906103f202016004016000016001898154811015156110e757fe5b906000526020600020906103f202016103f1015460018a81548110151561110a57fe5b906000526020600020906103f2020160020160018b81548110151561112b57fe5b906000526020600020906103f202016000015460018c81548110151561114d57fe5b906000526020600020906103f20201600101858054600181600116156101000203166002900480601f0160208091040260200160405190810160405280929190818152602001828054600181600116156101000203166002900480156111f45780601f106111c9576101008083540402835291602001916111f4565b820191906000526020600020905b8154815290600101906020018083116111d757829003601f168201915b50505050509550848054600181600116156101000203166002900480601f0160208091040260200160405190810160405280929190818152602001828054600181600116156101000203166002900480156112905780601f1061126557610100808354040283529160200191611290565b820191906000526020600020905b81548152906001019060200180831161127357829003601f168201915b50505050509450828054600181600116156101000203166002900480601f01602080910402602001604051908101604052809291908181526020018280546001816001161561010002031660029004801561132c5780601f106113015761010080835404028352916020019161132c565b820191906000526020600020905b81548152906001019060200180831161130f57829003601f168201915b505050505092508080548060200260200160405190810160405280929190818152602001828054801561137e57602002820191906000526020600020905b81548152602001906001019080831161136a575b5050505050905095509550955095509550955091939550919395565b60606000808373ffffffffffffffffffffffffffffffffffffffff1673ffffffffffffffffffffffffffffffffffffffff16815260200190815260200160002060030180548060200260200160405190810160405280929190818152602001828054801561142757602002820191906000526020600020905b815481526020019060010190808311611413575b50505050509050919050565b60018181548110151561144257fe5b906000526020600020906103f20201600091509050806000015490806002018054600181600116156101000203166002900480601f0160208091040260200160405190810160405280929190818152602001828054600181600116156101000203166002900480156114f55780601f106114ca576101008083540402835291602001916114f5565b820191906000526020600020905b8154815290600101906020018083116114d857829003601f168201915b505050505090806003018054600181600116156101000203166002900480601f0160208091040260200160405190810160405280929190818152602001828054600181600116156101000203166002900480156115935780601f1061156857610100808354040283529160200191611593565b820191906000526020600020905b81548152906001019060200180831161157657829003601f168201915b5050505050908060040160c06040519081016040529081600082018054600181600116156101000203166002900480601f0160208091040260200160405190810160405280929190818152602001828054600181600116156101000203166002900480156116425780601f1061161757610100808354040283529160200191611642565b820191906000526020600020905b81548152906001019060200180831161162557829003601f168201915b50505050508152602001600182018054600181600116156101000203166002900480601f0160208091040260200160405190810160405280929190818152602001828054600181600116156101000203166002900480156116e45780601f106116b9576101008083540402835291602001916116e4565b820191906000526020600020905b8154815290600101906020018083116116c757829003601f168201915b50505050508152602001600282018054600181600116156101000203166002900480601f0160208091040260200160405190810160405280929190818152602001828054600181600116156101000203166002900480156117865780601f1061175b57610100808354040283529160200191611786565b820191906000526020600020905b81548152906001019060200180831161176957829003601f168201915b50505050508152602001600382018054806020026020016040519081016040528092919081815260200182805480156117de57602002820191906000526020600020905b8154815260200190600101908083116117ca575b50505050508152602001600482016103e88060200260405190810160405280929190826103e88015611825576020028201915b815481526020019060010190808311611811575b505050505081526020016103ec8201548152505090806103f10154905085565b828054600181600116156101000203166002900490600052602060002090601f016020900481019282601f1061188657805160ff19168380011785556118b4565b828001600101855582156118b4579182015b828111156118b3578251825591602001919060010190611898565b5b5090506118c191906119d3565b5090565b828054828255906000526020600020908101928215611901579160200282015b828111156119005782518255916020019190600101906118e5565b5b50905061190e91906119d3565b5090565b828054600181600116156101000203166002900490600052602060002090601f016020900481019282601f1061195357805160ff1916838001178555611981565b82800160010185558215611981579182015b82811115611980578251825591602001919060010190611965565b5b50905061198e91906119d3565b5090565b826103e881019282156119c2579160200282015b828111156119c15782518255916020019190600101906119a6565b5b5090506119cf91906119d3565b5090565b6119f591905b808211156119f15760008160009055506001016119d9565b5090565b90565b6000611a048235612232565b905092915050565b6000611a188235612252565b905092915050565b6000611a2c823561225e565b905092915050565b600082601f8301121515611a4757600080fd5b8135611a5a611a5582612125565b6120f8565b91508082526020830160208301858383011115611a7657600080fd5b611a81838284612272565b50505092915050565b6000611a968235612268565b905092915050565b600060208284031215611ab057600080fd5b6000611abe848285016119f8565b91505092915050565b600080600060608486031215611adc57600080fd5b6000611aea868287016119f8565b9350506020611afb86828701611a8a565b925050604084013567ffffffffffffffff811115611b1857600080fd5b611b2486828701611a34565b9150509250925092565b600080600060608486031215611b4357600080fd5b6000611b5186828701611a20565b935050602084013567ffffffffffffffff811115611b6e57600080fd5b611b7a86828701611a34565b925050604084013567ffffffffffffffff811115611b9757600080fd5b611ba386828701611a34565b9150509250925092565b600060208284031215611bbf57600080fd5b6000611bcd84828501611a8a565b91505092915050565b60008060408385031215611be957600080fd5b6000611bf785828601611a8a565b9250506020611c0885828601611a0c565b9150509250929050565b6000611c1d8261218f565b808452602084019350611c2f83612151565b60005b82811015611c6157611c45868351611ddc565b611c4e826121dd565b9150602086019550600181019050611c32565b50849250505092915050565b6000611c788261219a565b80845260208401935083602082028501611c918561215e565b60005b84811015611cca578383038852611cac838351611e21565b9250611cb7826121ea565b9150602088019750600181019050611c94565b508196508694505050505092915050565b611ce4816121a5565b611ced8261216b565b60005b82811015611d1f57611d03858351611ef7565b611d0c826121f7565b9150602085019450600181019050611cf0565b5050505050565b6000611d31826121bc565b808452602084019350611d4383612182565b60005b82811015611d7557611d59868351611ef7565b611d6282612211565b9150602086019550600181019050611d46565b50849250505092915050565b6000611d8c826121b1565b808452602084019350611d9e83612175565b60005b82811015611dd057611db4868351611ef7565b611dbd82612204565b9150602086019550600181019050611da1565b50849250505092915050565b611de58161221e565b82525050565b6000611df6826121d2565b808452611e0a816020860160208601612281565b611e13816122b4565b602085010191505092915050565b6000611e2c826121c7565b808452611e40816020860160208601612281565b611e49816122b4565b602085010191505092915050565b6000617da0830160008301518482036000860152611e758282611e21565b91505060208301518482036020860152611e8f8282611e21565b91505060408301518482036040860152611ea98282611e21565b91505060608301518482036060860152611ec38282611d81565b9150506080830151611ed86080860182611cdb565b5060a0830151611eec617d80860182611ef7565b508091505092915050565b611f0081612228565b82525050565b600060a0820190508181036000830152611f208188611c6d565b90508181036020830152611f348187611c6d565b90508181036040830152611f488186611d26565b90508181036060830152611f5c8185611c6d565b90508181036080830152611f708184611c12565b90509695505050505050565b60006020820190508181036000830152611f968184611d26565b905092915050565b600060a082019050611fb36000830188611ddc565b8181036020830152611fc58187611e21565b90508181036040830152611fd98186611e21565b90508181036060830152611fed8185611e57565b9050611ffc6080830184611ef7565b9695505050505050565b600060c08201905081810360008301526120208189611deb565b905081810360208301526120348188611deb565b90506120436040830187611ef7565b81810360608301526120558186611deb565b90506120646080830185611ddc565b81810360a08301526120768184611d26565b9050979650505050505050565b6000608082019050818103600083015261209d8187611e21565b905081810360208301526120b18186611e21565b905081810360408301526120c58185611e21565b90506120d46060830184611ef7565b95945050505050565b60006020820190506120f26000830184611ef7565b92915050565b6000604051905081810181811067ffffffffffffffff8211171561211b57600080fd5b8060405250919050565b600067ffffffffffffffff82111561213c57600080fd5b601f19601f8301169050602081019050919050565b6000602082019050919050565b6000602082019050919050565b6000819050919050565b6000602082019050919050565b6000602082019050919050565b600081519050919050565b600081519050919050565b60006103e89050919050565b600081519050919050565b600081519050919050565b600081519050919050565b600081519050919050565b6000602082019050919050565b6000602082019050919050565b6000602082019050919050565b6000602082019050919050565b6000602082019050919050565b6000819050919050565b6000819050919050565b600073ffffffffffffffffffffffffffffffffffffffff82169050919050565b60008115159050919050565b6000819050919050565b6000819050919050565b82818337600083830152505050565b60005b8381101561229f578082015181840152602081019050612284565b838111156122ae576000848401525b50505050565b6000601f19601f83011690509190505600a265627a7a72305820176b99a2827024342a31093c826c18a458a4a3ed39ca1ce925b3018ef6e13c526c6578706572696d656e74616cf50037",
  "source": "pragma solidity ^0.4.22;\npragma experimental ABIEncoderV2;\n\ncontract NewsFact {\n\n    struct Journalist {\n        string name;\n        string email;\n        string website;\n        uint[] articles;\n        uint[1000] votes;\n        uint reputation;\n    }\n\n    struct Article {\n        bytes32 _hash;\n        uint[] votes;\n        string link;\n        string title;\n        Journalist author;\n        uint quality;\n    }\n\n\n    mapping(address => Journalist) public journalists;\n    Article[] public articles;\n\n\n    function publishArticle(bytes32 __hash, string _link, string _title) public {\n        uint[] storage _votes;\n        uint _quality = journalists[msg.sender].reputation;\n        articles.push(Article({\n            _hash: __hash,\n            votes: _votes,\n            quality: _quality,\n            link: _link,\n            title: _title,\n            author: journalists[msg.sender]\n        }));\n        journalists[msg.sender].articles.push(articles.length-1);\n    }\n\n\n    function voteArticle(uint id, bool real) public {\n        uint reps = 0;\n        if (real == true){\n            reps = journalists[msg.sender].reputation;\n        }else{\n            reps = -journalists[msg.sender].reputation;\n        }\n        articles[id].quality = articles[id].quality + reps;\n        articles[id].votes.push(reps);\n        journalists[msg.sender].votes[id] = reps;\n    }\n\n\n\tfunction getNumberArticles() public view returns(uint){\n\t\treturn articles.length;\n\t}\n\n\n\n    function getAllArticles()\n        public\n        returns (string[], string[], uint[], string[], bytes32[])\n    {\n        string[] memory titles = new string[](articles.length);\n        string[] memory authors = new string[](articles.length);\n        uint[] memory quality = new uint[](articles.length);\n        string[] memory links = new string[](articles.length);\n        bytes32[] memory hashes = new bytes32[](articles.length);\n\n        for (uint i = 0; i < articles.length; i++) {\n            titles[i] = articles[i].title;\n            authors[i] = articles[i].author.name;\n            quality[i] = articles[i].quality;\n            links[i] = articles[i].link;\n            hashes[i] = articles[i]._hash;\n        }\n\n        return (titles,authors,quality,links,hashes);\n    }\n\n\n    function setJournalistData(address target, uint _reputation, string _name) public {\n        journalists[target].reputation = _reputation;\n        journalists[target].name = _name;\n    }\n\n\n\tfunction getUserArticles(address addr) public view returns(uint[]){\n\t\treturn journalists[addr].articles;\n\t}\n\n\n\tfunction getArticle(uint id) public constant returns(string, string, uint, string, bytes32, uint[]) {\n\t\treturn (articles[id].title, articles[id].author.name, articles[id].quality, articles[id].link, articles[id]._hash, articles[id].votes);\n\t}\n}",
  "sourcePath": "/Users/diegoestevez/Desktop/angelhacks/NewsFact/contracts/NewsFact.sol",
  "compiler": {
    "name": "solc",
    "version": "0.4.24+commit.e67f0147.Emscripten.clang"
  },
  "schemaVersion": "2.0.1",
  "updatedAt": "2018-07-29T19:05:43.074Z"
}